:020000040800F2
:100000000000012045020008490200084B020008D8
:100010006102000863020008790200080000000085
:100020000000000000000000000000008F02000837
:10003000910200080000000093020008852B0008D0
:10004000E5240008E5240008E5240008E52400086C
:10005000E5240008E5240008E5240008E52400085C
:10006000E5240008E5240008E5240008E52400084C
:10007000E5240008E5240008E5240008E52400083C
:10008000E5240008E5240008E5240008E52400082C
:10009000E5240008E5240008E5240008E52400081C
:1000A000E5240008E5240008E5240008E52400080C
:1000B000E5240008E5240008E5240008E5240008FC
:1000C000E5240008E5240008E5240008E5240008EC
:1000D000E5240008E5240008E5240008E5240008DC
:1000E000E5240008E5240008E5240008E5240008CC
:1000F000E5240008E5240008E5240008E5240008BC
:10010000E5240008E5240008E5240008E5240008AB
:10011000E5240008E5240008E5240008E52400089B
:10012000E5240008E5240008E5240008E52400088B
:10013000E52400080000000000000000E52400089D
:10014000E5240008E5240008E5240008952B0008B4
:10015000E5240008E5240008E5240008E52400085B
:10016000E5240008E5240008E5240008E52400084B
:10017000E5240008E524000800000000000000005D
:10018000E524000807B502F08DF9234A234B2449E2
:100190008B4204D252F8040F43F8040BF8E7214BCA
:1001A000214A0021934202D243F8041BFAE702F0ED
:1001B00085F901A9684602F06DF91C4B1C4C1E46DE
:1001C000E41AA4100025AC4204DD56F82530984707
:1001D0000135F8E7174B184C1E46E41AA410002509
:1001E000AC4204DD56F8253098470135F8E79DE824
:1001F000030002F0BFFB114B06461D46104CE41AEB
:10020000A410002C04DD013C55F824309847F8E791
:10021000304602F01BF900BF004A00080000002031
:10022000C4010020C40100200C0C0020D0020008F2
:10023000D0020008D0020008D0020008D002000856
:10024000D002000814480047FEE71EF0040F0CBF60
:10025000EFF30880EFF309807146104A1047FEE77C
:10026000FEE71EF0040F0CBFEFF30880EFF30980E8
:1002700071460B4A1047FEE71EF0040F0CBFEFF368
:100280000880EFF309807146064A1047FEE7FEE753
:10029000FEE7FEE770470000850100085F020008E6
:0802A000770200088D0200083E
:1002A800044A000800000020C4010020044A000895
:1002B8000000001000000010C40100200C0C0020F9
:0802C80000000010000000100E
:1002D00010B5044601F0E6F94FF47A73B0FBF3F081
:1002E00000F090F8002221464FF0FF3000F04AF86D
:1002F000002010BD08B50B4B03201A6842F40072B1
:100300001A601A6842F480621A601A6842F48072B5
:100310001A6000F025F80020FFF7DAFF02F0CAFBB0
:10032000002008BD003C0240024A136801331360FC
:10033000704700BFC4010020014B1868704700BF20
:10034000C401002013B50190FFF7F6FF0446FFF744
:10035000F3FF019B001B9842F9D302B010BD0000CF
:10036000074A0002D36800F4E06023F4E0631B0452
:100370001B0C43F0BF6343F400330343D360704767
:1003800000ED00E0174B30B5DB68C3F30223C3F187
:1003900007041D1D042C28BF0424062D4FF0010561
:1003A00005FA04F404F1FF348CBF033B00230C4036
:1003B0009C4005FA03F3013B1A40002842EA04027C
:1003C0004FEA0212AFBF00F16040074B00F00F0090
:1003D000D2B2A5BFD2B200F561401A5480F8002312
:1003E00030BD00BF00ED00E014ED00E04209012344
:1003F00000F01F0003FA00F0014B43F822007047A1
:1004000000E100E00138B0F1807F0AD2064B074AD4
:10041000F021586082F823100020072298601A60AB
:1004200070470120704700BF10E000E000ED00E0E1
:10043000044B04281A680CBF42F0040222F00402A4
:100440001A60704710E000E0704708B5FFF7FCFF46
:1004500008BD00002DE9F04F6D4F0B68BE4685B01A
:10046000DFF8B4C1DFF8B481019300220124019BBD
:10047000944034EA030340F0C3804D6825F0100A2D
:10048000BAF1020F14D14FEAD20900EB890902F048
:10049000070BD9F820604FEA8B0B0F2303FA0BF3FD
:1004A00026EA03060B6903FA0BF33343C9F820303D
:1004B0004FEA420B4FF0030909FA0BF96FEA0909F9
:1004C000036805F0030603EA090306FA0BF60AF1CE
:1004D000FF3A3343BAF1010F03600FD88368CE6847
:1004E00009EA030306FA0BF61E4386604368C5F368
:1004F000001623EA0403964033434360C36809EAC5
:1005000003098B6803FA0BF343EA0903C360EB00AA
:1005100076D500230393DCF8446022F0030946F407
:100520008046CCF84460DCF8446009F1804906F468
:100530008046039609F59C3902F0030A354B039E69
:100540004FEA8A0AD9F808B00F2606FA0AF6984246
:100550002BEA060620D003F5806398421ED003F5EF
:10056000806398421CD003F5806398421AD003F54B
:100570008063984218D0404518D003F50063984234
:1005800016D003F58063984214D003F58063984237
:1005900014BF092308230EE000230CE001230AE026
:1005A000022308E0032306E0042304E0052302E01D
:1005B000062300E0072303FA0AF33343E643C9F8AE
:1005C00008303B6815F4803F0CBF33402343CEF81E
:1005D0000030DEF8043015F4003F0CBF33402343F5
:1005E0007B60BB6815F4801F0CBF33402343CEF8FB
:1005F0000830DEF80C30AD0254BF33402343FB60BB
:100600000132102A7FF432AF05B0BDE8F08F00BF91
:10061000003C01400000024000380240001402404B
:100620000369194214BF01200020704702B9090470
:10063000816170472DE9F0410D4604461646FFF7EB
:100640007BFE0746C5F307482368B8F1010F0CBFCE
:1006500058699869C04380B2284214BF0120002025
:1006600028B35A69520510D51A68012042F4007265
:100670001A606FF480625A610423A363002384F834
:10068000350084F83430BDE8F081731CDCD046B905
:10069000012384F83530002384F834300320BDE88A
:1006A000F081FFF749FEC01B8642CDD2F0E7BDE8DE
:1006B000F0812DE9F0410E461D4604469046FFF7B5
:1006C0003BFE330C0746B8F1000F34D15FFA83F8D4
:1006D0002368B8F1010F0CBF5B699B69DB439BB2D8
:1006E000334214BF01230023C3B16A1CF0D0CDB143
:1006F000FFF722FEC01B8542EAD213E06B1C10D12B
:100700002368B8F1010F0CBF5B699B69DB439BB2A7
:1007100033420CBF01230023002BEFD10020BDE8A2
:10072000F0815DB9012384F83530002384F834303A
:100730000320BDE8F0815FFA83F8E1E7FFF7FCFDF5
:10074000C01B8542DCD2EDE770B5164602680D4647
:1007500013684FF0011143F4807313603346002295
:100760000446FFF7A6FFC8B923692268B3F5804F96
:1007700003D105F0FE05156115E0EB1103F006034A
:1007800043F0F00313610C4932462046FFF752FF55
:1007900030B1A36B042B01D1012070BD032070BDCB
:1007A0002368EDB21D61324604492046FFF742FF3F
:1007B0000028EED170BD00BF08000100020001005A
:1007C00070B50446002860D090F8353003F0FF0281
:1007D0001BB980F8342002F079F92268022384F8EA
:1007E000353013682A4D23F00103136000F074FFC5
:1007F00028496368B0FBF1F1AB4222682E4688BFFE
:100800004FF49675516082BF69434FF47A75B1FB1E
:10081000F5F1B34201F10101116208D85B00B0FBB0
:10082000F3F0C0F30B03032B98BF042016E0A1687C
:1008300049B903EB4303B0FBF3F0C0F30B0363B11F
:1008400040F400400AE019214B43B0FBF3F0C0F341
:100850000B0313B140F4404000E00120E169236A3A
:10086000D0610B4313602169E36800200B43936060
:100870006169A3690B43D360136843F001031360FC
:100880000123A06384F8353070BD012070BD00BF26
:10089000A086010040420F002DE9F74390F8354053
:1008A0000546E4B2012C894617461E4601D00220B7
:1008B0005FE0002A5CD0002B5AD042F2107322462F
:1008C0002D49FFF7F6FE80460028F0D195F8343028
:1008D000012BECD02A6885F834401368494623F48C
:1008E00000631360122385F835300A9AA8632846FE
:1008F000FFF72AFF28B1AB6B85F83480042B0ED1AB
:1009000036E02B6801905A6901929B690193019B23
:100910000A9B002219492846FFF7CBFE08B10320A5
:1009200027E02A683B7813615169731E49079BB21F
:1009300002D401371E4618E093B90A9B00220F49E2
:100940002846FFF7B6FE0028E9D12A68136843F469
:1009500000731360012385F8353085F8340008E012
:100960007B78023E1361B6B20237002ED0D1E4E7A5
:10097000204603B0BDE8F0830200100080000100B3
:10098000F0B5054689B000285FD02C466E4603239B
:1009900080F8793302F0B2F954F8100B01F004F941
:1009A0000FCC0FC694E80F0086E80F002F1D97E8C4
:1009B0000E00286801F0B8F80021286801F0FAF864
:1009C00000212B462A46084605F11004012682F82C
:1009D0003010D18601310F2982F8316082F833005E
:1009E0009063D063506402F11C02F0D100221146E2
:1009F000D5F800E083F8D421DA8602F14000013214
:100A00000EEB80000F2A83F8D51183F8D711C3F8B5
:100A1000DC11C3F8E011C3F8E811416003F11C03D5
:100A2000E8D16E460FCC0FC694E80F0086E80F00A1
:100A3000704697E80E0001F0D3F8012385F879336A
:100A4000286801F06FFC002000E0012009B0F0BD33
:100A500090F8783310B5012B04460CD0012380F8B0
:100A60007833006801F052FC206801F097F800200C
:100A700084F8780310BD022010BD2DE9F04F066800
:100A800087B00446304601F087FC002840F02482FD
:100A9000206801F053FC002800F01E82206801F05D
:100AA0004DFC820742BF236802225A61206801F090
:100AB00045FC10F400204DD0206801F043FCA24614
:100AC000804606F530670025B8F1000F43D018F0D6
:100AD000010F38D05FFA85FB5946206801F042FCCF
:100AE00010F0010F814621D0216901239942BB609A
:100AF0000CD13969DAF8DC01C1F31201411ACAF8E4
:100B0000EC11DAF8E0110844CAF8E0015946204631
:100B100002F02CF92169012908D13DB9D4F8E82166
:100B200022B904F55F72206801F055FC19F0080F36
:100B300004D0204602F014F90823BB6019F0100F0E
:100B40001CBF1023BB6001354FEA580820370AF15B
:100B50001C0AB9E70546206801F0F0FB430340F1A9
:100B6000AB80206801F0F6FB2746834606F5106946
:100B70000025BBF1000F00F09F801BF0010F00F07B
:100B800094805FFA85FA5146206801F0F5FB10F079
:100B9000010F804621D0D6F834380121A94023EA3C
:100BA0000103C6F834380123C9F8083023695146D7
:100BB000012B04BFFA6BBB6B204604BF9B18FB6381
:100BC00002F0DDF82169012907D135B9636C23B939
:100BD00004F55F72206801F0FEFB18F0080F1CBFDF
:100BE0000823C9F8083018F0100F1CBF1023C9F8EB
:100BF000083018F0400F1CBF4023C9F8083018F027
:100C0000020F1CBF0223C9F8083018F0800F4CD027
:100C10002368BA6C03937B6CC2EB0308BB6B0422A2
:100C2000984528BF984608F1030393FBF2F3049319
:100C3000039B03F5106303EB45130593059B049A8F
:100C40009B699BB293420ED8B8F1000F2DDC039B39
:100C5000012203F5006AD3F83438AA4023EA0203DC
:100C6000CAF8343021E0BA6C7B6C9342ECD9002B8B
:100C7000EAD0C2EB0308BB6B0422984528BF984614
:100C800008F1030393FBF2F30493237C5246009391
:100C9000F96B1FFA88F3039801F0ADFAFB6B43443C
:100CA000FB63BB6C4344BB64C8E701354FEA5B0B95
:100CB0001C3709F120095CE7206801F03FFB0028A0
:100CC0000CDAD6F80438204623F00103C6F80438BD
:100CD00002F08AF823684FF000425A61206801F060
:100CE0002DFB07050AD5D6F80838D80702D52046C7
:100CF00002F062F823684FF400625A61206801F044
:100D00001DFBC10442D506F500677B68002123F076
:100D100001037B60206800F0FFFF606806F5106348
:100D20000022FF21824205D099600132C3F80812E7
:100D30002033F7E74FF0FF33BB61FB6943F001134A
:100D4000FB61A36A53B1D7F8843043F00B03C7F8B3
:100D500084307B6C43F00B037B6407E07B6943F0DA
:100D60000B037B613B6943F00B033B61D6F8003812
:100D700004F55F7223F4FE63C6F80038217C206816
:100D800001F029FB23684FF480525A61206801F07A
:100D9000D5FA820422D5206801F002FB2068C368DE
:100DA00023F47053C36000F0E0FF236838B94FF4B8
:100DB00000726261DA68E06042F4105206E00322D9
:100DC000E26040226261DA6842F4A052DA602046B2
:100DD00001F0E1FF23684FF400525A61206801F0EE
:100DE000ADFAC30637D52268936923F010039361E7
:100DF000376AC7F34343022B07F00F0814D147F6B5
:100E0000F0733B4013B31C2303FB0848C7F30A17D6
:100E10003A46D8F8E011304601F000FAD8F8E0314F
:100E20003B44C8F8E0310CE0062B0FD1082204F552
:100E30005F71304601F0F2F91C2303FB0848C7F349
:100E40000A17D8F8EC311F44C8F8EC71226893698E
:100E500043F010039361206801F070FA070705D58D
:100E6000204601F094FF236808225A61206801F0AF
:100E700065FAC60207D5E9B2204601F0BDFF236836
:100E80004FF480125A61206801F058FA800207D5A9
:100E9000E9B2204601F0ACFF23684FF400125A611A
:100EA000206801F04BFA410006D5204601F0A8FF6A
:100EB00023684FF080425A61206801F03FFA4207F0
:100EC0000AD523685D686B0702D5204601F09CFFB8
:100ED000226853682B43536007B0BDE8F08F90F849
:100EE000783310B5012B044609D0012380F87833FC
:100EF000006801F0FBF9002084F8780310BD02209F
:100F000010BDF8B50446CDB26FB2002F01F07F00DE
:100F10004FF01C06B5BF06FB004106FB0141303116
:100F200001F5EA71C0B2002FB8BFC880022BCB70A8
:100F30004FEAD51504BF00230B7108704D7094F86B
:100F400078338A60012B09D0012384F87833206834
:100F500000F026FF002084F87803F8BD0220F8BDD9
:100F600010B50446CBB213F0800F01F07F004FF0B4
:100F70001C0215BF02FB004102FB0141303101F5AB
:100F8000EA71DB0908704B7094F87833012B09D0B3
:100F9000012384F87833206800F041FF002084F8B2
:100FA000780310BD022010BD38B5044601F07F055E
:100FB0001C2000FB0540C0F8E8310023C0F8E02108
:100FC000C0F8EC3180F8D53180F8D4512369012B79
:100FD00008BFC0F8E42194F87823012A13D01C211B
:100FE00001FB0541012284F8782301F5EA71DAB2A8
:100FF000206815B901F058F801E000F045FF002025
:1010000084F8780338BD022038BD01F07F011C232D
:1010100003FB0100B0F8EC01704738B5044601F05D
:101020007F051C2000FB05404364002383640123EB
:10103000C26380F8313080F830502369012B08BF3B
:10104000026494F87823012A12D01C2101FB054187
:10105000012284F878233031DAB2206815B901F022
:1010600023F801E000F010FF002084F8780338BD79
:10107000022038BD38B5CBB213F0800F01F07F05E8
:101080004FF01C0215BF02FB050102FB01013031CC
:1010900001F5EA710122DB09EDB28A700D704B7027
:1010A00090F87833044693420FD080F87823006894
:1010B00001F0C4F82DB904F55F72217C206801F0BD
:1010C0008AF9002084F8780338BD022038BD38B58D
:1010D0000546CBB213F0800F01F07F004FF01C02E9
:1010E00015BF02FB005102FB0151303101F5EA71DD
:1010F000DB0900248C7008704B7095F87833012B55
:1011000009D0012385F87833286801F0C2F885F802
:101110007843204638BD022038BD70B50468606A47
:1011200019B940EA0243A36216E0A36A002500EB66
:1011300013434E1EE8B2B04205F1010506DA403015
:1011400004EB8000406803EB1043F3E73F3143EAD0
:10115000024304EB81046360002070BD036800203B
:101160005962704703682DE9F341DD07044603D453
:101170002368980746D496E0884B9A6802F00C02E0
:10118000042A07D09A6802F00C02082A0BD15B6887
:10119000590208D5814B1B689A03E9D56368002B77
:1011A000E6D1012060E17E4D00232B70FFF7C4F8EB
:1011B00007467A4E33689B0306D5FFF7BDF8C01B80
:1011C0006428F7D903204FE123792B70636863B15A
:1011D000FFF7B2F80646714D2B689F03C8D4FFF79E
:1011E000ABF8801B6428F7D9ECE7FFF7A5F80646B3
:1011F0006A4D2B689803BBD5FFF79EF8801B6428C7
:10120000F7D9DFE7654B9A6812F00C0F07D09A68A0
:1012100002F00C02082A17D15B68590214D45F4B04
:101220001A68920702D5E268012ABAD11A68F82131
:1012300091FAA1F1B1FA81F1206922F0F80200FAE5
:1012400001F10A431A602EE0E268564BEAB101222E
:101250001A60FFF771F80646504D2B684F489F07FC
:1012600005D4FFF769F8801B6428F6D9AAE703685C
:10127000F82292FAA2F2B2FA82F2216923F0F8037C
:1012800001FA02F2134303600DE01A60FFF754F80D
:101290000646424D2B68990705D5FFF74DF8801B90
:1012A0006428F7D98EE723681A0703D423685B07FD
:1012B00050D51FE062693C4B72B101221A60FFF702
:1012C0003BF80646354D6B6F9F07EFD4FFF734F8B8
:1012D000801B6428F7D975E71A60FFF72DF80646DA
:1012E0002E4D6B6F9807E1D5FFF726F8801B642819
:1012F000F7D967E700230193284B2C4D1A6C42F075
:1013000080521A641B6C03F080530193019B2B687D
:1013100043F480732B60FFF70FF806462B68D9055E
:101320001BD5234D00232B70FFF706F841F28838B8
:1013300007461A4E336F9A0715D4237A2B70A36889
:10134000EBB1FEF7F9FF41F288370646134D2B6FDC
:101350009B070ED5A2696ABB6BE0FEF7EDFF801B11
:101360006428DBD92EE7FEF7E7FFC01B4045E1D933
:1013700028E7FEF7E1FF801BB842E8D922E7FEF735
:10138000DBFF41F288370646044D2B6F9807E1D505
:10139000FEF7D2FF801BB842F7D913E700380240AE
:1013A0000238024000004742800E47420070004071
:1013B000703802402E4DAB6803F00C03082B3FF44D
:1013C000F0AE2C4E0023022A336041D1FEF7B4FF69
:1013D00080462B68264F99012DD447F6C07292FAA9
:1013E000A2F24FF44033B2FA82FE93FAA3F34FF025
:1013F0007062B3FA83F592FAA2F2B2FA82F1E0696E
:10140000236A626A034302FA0EF243EA0200A36A05
:101410005A08013A02FA05F3E26A03438A40134389
:101420007B6001233360FEF787FF04463B689A0127
:1014300008D5002018E0FEF77FFFC8EB0000642805
:10144000C7D9BFE6FEF778FF001B6428EED9B9E6DE
:10145000FEF772FF04462B689B01EAD5FEF76CFF8E
:10146000001B6428F7D9ADE602B0BDE8F08100BFEB
:101470000038024060004742694B2DE9F0411A688C
:10148000044602F007028A420D4663D2CAB21A70BD
:101490001B6803F00703994202D00120BDE8F081E8
:1014A00001688F0706D55F48836823F0F002A368C0
:1014B00013438360CE070BD421684D0740F1A08011
:1014C0005848836823F4E052E3681343836097E04D
:1014D0006268544B012A196802D111F4003F06E0FA
:1014E000022A02D111F0007F01E011F0020FD4D0E6
:1014F00099684C4E21F003010A439A60FEF71CFFE5
:1015000063680546012B41F288370CD1B36803F0BC
:101510000C03042BD0D0FEF70FFF401BB842F5D9C7
:101520000320BDE8F081022B0FD1B36803F00C0358
:10153000082BC1D0FEF700FF401BB842F5D9EFE7FA
:10154000FEF7FAFE401BB842EAD8B36813F00C0F5E
:10155000F6D1B1E70168880706D53248836823F0E1
:10156000F002A36813438360CA0708D42C4BEAB285
:101570001A701B6803F007039D428ED19CE76268D6
:10158000284B012A196802D111F4003F06E0022A13
:1015900002D111F0007F01E011F0020F3FF47DAFA6
:1015A0009968204F21F003010A439A60FEF7C4FEB8
:1015B00063680646012B41F288380AD1BB6803F004
:1015C0000C03042BD2D0FEF7B7FE801B4045F5D9A3
:1015D000A6E7022B0FD1BB6803F00C03082BC5D084
:1015E000FEF7AAFE801B4045F5D999E7FEF7A4FE59
:1015F000801B404594D8BB6813F00C0FF6D1B5E7BB
:101600000B0707D5074A2169936823F4604343EA2F
:10161000C10393600020FEF75BFE0020BDE8F0816F
:10162000003C0240003802401B498B6803F00C0369
:10163000042B2CD0082B2CD148684B6800F03F00BD
:1016400013F4800F47F6C0724B6892FAA2F247F685
:10165000C071B2FA82F201EA030121FA02F114BF69
:101660000E4A0F4AB2FBF0F00B4A00FB01F352683E
:101670004FF4403090FAA0F0B0FA80F002F440321B
:1016800022FA00F001304000B3FBF0F0704703484D
:1016900070470348704700BF0038024040787D0122
:1016A0000024F40008B5FFF7BFFF084BF0229B6849
:1016B00092FAA2F2B2FA82F203F0F003D340044AA3
:1016C000D35CD840034B186008BD00BF003802400F
:1016D000C64800080800002008B5FFF7E3FF074BE5
:1016E0004FF4E0529B6892FAA2F2B2FA82F203F44B
:1016F000E053D340024AD35CD84008BD00380240D2
:10170000C6480008036A70B523F001030362036A48
:10171000426884690D6824F07304254323F00204B1
:101720008B6823430C4CA04209D004F58064A0428E
:1017300005D042604A6885614263036270BDCC682F
:1017400023F0080323434E698C6922F4407234432A
:1017500023F004032243ECE700000140036A30B5A4
:1017600023F480730362036A4268C4690D6824F03D
:1017700073042C438D6823F4007343EA05230E4D54
:10178000A84209D005F58065A84205D042604A68A4
:10179000C461C263036230BDCD6823F4006343EAD1
:1017A00005234D6922F4405242EA05128D6923F463
:1017B000806342EA0512E9E700000140036A30B5A0
:1017C00023F480530362046A4368C2690D6822F4FB
:1017D000E64242EA05228D6824F4005444EA0534C6
:1017E000094DA84209D005F58065A84205D043609F
:1017F0004B68C2610364046230BD4D6923F48043C9
:1018000043EA8513F3E700BF000001402E4A036856
:10181000904212D0B0F1804F0FD0A2F57C4290429E
:101820000BD002F58062904207D002F580629042B0
:1018300003D002F57842904218D14A6823F0700331
:101840001343214A904237D0B0F1804F34D01F4A21
:10185000904231D002F5806290422DD002F5806234
:10186000904229D002F57842904225D0184A904201
:1018700022D002F5806290421ED002F58062904232
:101880001AD0A2F59832904216D002F580629042AA
:1018900012D002F5806290420ED003608B68C36262
:1018A0000B688362084B98420BD003F58063984223
:1018B00007D0012343617047CA6823F44073134380
:1018C000EBE70B690363F4E700000140000400400C
:1018D0000040014010B50446A0B190F8393003F043
:1018E000FF021BB980F8382001F01AF9022384F8AE
:1018F00039302068211DFFF789FF012384F8393032
:10190000002010BD012010BD036A30B523F0100384
:101910000362036A426884690D6824F4E64444EA79
:1019200005248D6823F0200343EA05130E4DA842D9
:1019300009D005F58065A84205D042604A688461F7
:101940008263036230BDCD6823F0800343EA051350
:101950004D6922F4406242EA85028D6923F040031A
:1019600042EA8502E9E700BF0000014038B590F87F
:1019700038300446012B0D464FF0020058D00123A9
:1019800084F8383084F839000C2A4BD8DFE802F0AC
:10199000074A4A4A174A4A4A294A4A4A39002068A5
:1019A000FFF7B0FE23689A6942F008029A619A69CB
:1019B00022F004029A6199692A690A430FE02068BB
:1019C000FFF7A2FF236809699A6942F400629A61ED
:1019D0009A6922F480629A619A6942EA01229A61C4
:1019E00020E02068FFF7BAFE2368DA6942F00802B7
:1019F000DA61DA6922F00402DA61D9692A690A43F4
:101A00000FE02068FFF7DAFE23680969DA6942F41B
:101A10000062DA61DA6922F48062DA61DA6942EA44
:101A20000122DA610123002084F8393084F838007B
:101A300038BD10B50123046A8B4024EA0303036216
:101A4000036A8A4042EA0301016210BD10B50446F0
:101A500001220068FFF7EDFF2368084A934203D094
:101A600002F58062934203D15A6C42F400425A64F8
:101A70001A68002042F001021A6010BD0000014007
:101A800010B5044600220068FFF7D3FF2368144A0C
:101A9000934203D002F5806293420DD141F21112BC
:101AA000196A0A4042B940F24442196A0A401AB916
:101AB0005A6C22F400425A6441F21112196A0A4027
:101AC00042B940F24442196A0A401AB91A6822F02F
:101AD00001021A60012384F83930002010BD00BFD4
:101AE0000000014090F8383010B5012B4FF0020390
:101AF00018D080F8393003685A6822F070025A60B2
:101B00005C680A6822435A609A6822F080029A60F0
:101B10009C684A6822439A60012380F83930002388
:101B200080F83830184610BD84B038B505AD85E86A
:101B30000E000A9B0446012B17D1836B23F48033DC
:101B40008363C36823F4840323F04003C360C36842
:101B500023F44013C3600F9B012B02BFC36843F4FF
:101B60008013C36000F05AFC08E0C36843F04003F0
:101B7000C36000F053FC4FF48033A363089B012B38
:101B800007D1A36843F00C03A360A36843F02003CC
:101B9000A3600020BDE8384004B07047836843F07C
:101BA0000103836000207047836823F00103836092
:101BB0000020704708B5C368012923F0C043C36003
:101BC00004D1C36843F00053C36004E019B9C3688B
:101BD00043F08043C3603220FEF7B4FB002008BD11
:101BE00084B02DE9F041044607A880E80E00A36BFD
:101BF0000F9E43F4002388460A9FA3631EB9A36B7C
:101C000043F40013A3630023C4F8003ED4F8003863
:101C100004F50065C4F800380C9B012B06D1099926
:101C200029B11946204600F099F803E00321204627
:101C300000F094F81021204600F06EF8204600F0E5
:101C40007DF8002319464FF0FF322B614FF0904092
:101C50006B614FF0FF0EAA61EB6104F51062434522
:101C60000CD0D2F800C00133BCF1000FB4BF10603B
:101C700011601161C2F808E02032F0E7002211463D
:101C800004F530634FF090404FF0FF0E42450CD00A
:101C9000D3F800C00132BCF1000FB4BF1860196066
:101CA0001961C3F808E02033F0E72B69012F23F412
:101CB00080732B6108D1164B2B632B6B43F480335D
:101CC00043F003032B632B6B0023A3616FF080436E
:101CD00063611FB9A36943F01003A361A2690D4BAF
:101CE0001343A3610D9B1BB1A36943F00803A361D8
:101CF000012E08BFA3694FF0000002BF43F08043EC
:101D000043F00403A361BDE8F04104B0704700BF95
:101D10000001800000383C80890141F02001064A22
:101D20000161013A05D0036913F02003F9D1184687
:101D300070470320704700BF410D03001023064A7F
:101D40000361013A05D0036913F01003F9D1184675
:101D500070470320704700BF410D0300D0F80038E2
:101D60001943C0F8001800207047D0F8083800F573
:101D7000006213F0060012D0936803F00603022BF2
:101D80000CD0936803F00603062B07D0936803F08A
:101D90000603042B14BF0020022070470320704765
:101DA0004B7800F50062012B70B50E78D4691AD11A
:101DB000B3409BB22343D3610E78750105F51065DE
:101DC0002B581A0429D42C588A6844F0805343F4C1
:101DD0000043C2F30A021A43CB7842EA834343EA40
:101DE00086532B5019E04FF4803505FA06F3234350
:101DF000D3610C78640104F5306423581B040CD4BF
:101E000022588B68C3F30A0542F0805343F4004321
:101E1000CA782B4343EA82432350002070BD30B57B
:101E20004C7800F50063012C0A78DD6B15D104FABB
:101E300002F292B225EA0202DA630D78DA69AC4066
:101E4000A4B222EA0404DC610B785B0103F51063A1
:101E50001A5822F400421A5013E0012404FA02F244
:101E600025EA0242DA630D78DA69AC4022EA0444DA
:101E7000DC610B785B0103F530631A5822F40042F1
:101E80001A50002030BD0000F7B54B780C78012BBC
:101E900000EB44144B6940F09780D4F81059C3B953
:101EA00025F0FF5525F4C015C4F810590C7800EB47
:101EB0004414D4F8105945F40025C4F810590C788E
:101EC00000EB4414D4F81059ED0CED04C4F810598B
:101ED0003FE0ED0CED04C4F810590C788F6800EB6E
:101EE0004414D4F8105925F0FF5525F4C015C4F852
:101EF0001059DC19013CB4FBF7F40D78694F00EB85
:101F00004515D5F81069E404274047EA0604C5F8EA
:101F100010490C78C3F3120600EB4414D4F810599E
:101F20003543C4F81059CC78012C40F0B4800C78BB
:101F300000EB4414D4F8105925F0C045C4F81059EA
:101F40000C7800EB4414D4F8105945F00055C4F84F
:101F50001059012A06D10C780D6900EB4414C4F81D
:101F600014590BE0CC78012C0BD03BB10F78D0F892
:101F700034580124BC402C43C0F83448CC78012CA0
:101F80000FD1D0F8084814F4807F0C784FEA44143D
:101F900004F5106425580CBF45F0005545F08055F8
:101FA00025500C78640104F51064055945F004458A
:101FB0000551CC78012C72D10C7800929BB222464C
:101FC000C96800F018F96AE0D4F8105BED0CED0474
:101FD000C4F8105B0C7800EB4414D4F8105B25F0C7
:101FE000FF5525F4C015C4F8105B0C788D6893B9C3
:101FF00000EB4414D4F8103BC5F312051D43C4F89C
:10200000105B0B7800EB4313D3F8104B44F400241F
:10201000C3F8104B1BE02B44013BB3FBF5F300EB83
:102020004414204FD4F8106B4FEAC34E0EEA070752
:102030003E43C4F8106B9BB20C785D4300EB441434
:10204000D4F8106BC5F312053543C4F8105B012AB0
:1020500001BF0B78CA6800EB4313C3F8142BCB788D
:10206000012B0FD1D0F8083813F4807F0B784FEA9A
:10207000431303F53063C2580CBF42F0005242F0E4
:102080008052C2500B785B0103F53063C25842F0B6
:102090000442C25003E0012A7FF467AF5BE70020EF
:1020A00003B0F0BD0000F81F4B7870B5012B0B7822
:1020B0004C6900EB431363D124BBD3F81049012AC8
:1020C00024F0FF5424F4C014C3F810490B7800EB3B
:1020D0004313D3F8104944F40024C3F810490B7893
:1020E00000EB4313D3F810494FEAD4444FEAC444F9
:1020F000C3F810493BD10B780A6900EB4313C3F8CE
:10210000142934E0D3F81059ED0CED04C3F810593C
:102110000B7800EB4313D3F8105925F0FF5525F445
:10212000C015C3F810598B689C4288BF4B610B786F
:102130004D6900EB4313D3F81049C5F3120644F47C
:102140000024C3F810490B78012A00EB4313D3F89D
:10215000104944EA0604C3F81049CCD03DB10D78CB
:10216000D0F834280123AB401343C0F834380B783F
:102170005B0103F51063C25842F00442C25038E0DC
:10218000D3F8105BED0CED04C3F8105B0B7800EB9B
:102190004313D3F8105B25F0FF5525F4C015C3F8A1
:1021A000105B8D6804B14D610B78C5F3120500EB2F
:1021B0004313D3F8104B012A44F40024C3F8104B06
:1021C0000B7808BFCA6800EB4313D3F8104B45EAFD
:1021D0000405C3F8105B02BF0B7800EB4313C3F890
:1021E000142B0B785B0103F53063C25842F00442B4
:1021F000C250002070BD10B59DF8084064B903338B
:1022000000F580509B1000EB0232A34204D051F83D
:10221000240001341060F8E7002010BD10B503322F
:102220009210002300F58050934204D0046841F8D6
:1022300023400133F8E701EB830010BD4B78012BFD
:102240000B784FEA431311D103F51063C258002AEB
:10225000A2BFC25822F08042C2500B785B0103F546
:102260001063C25842F40012C25010E003F530630C
:10227000C258002AA2BFC25822F08042C2500B7836
:102280005B0103F53063C25842F40012C2500020D3
:1022900070474B78012B0B784FEA431312D103F5AB
:1022A00010631A5822F400121A50CB78023B012B0B
:1022B0001AD80B785B0103F510631A5842F080526C
:1022C0001A5011E003F530631A5822F400121A5024
:1022D000CB78023B012B07D80B785B0103F5306309
:1022E0001A5842F080521A5000207047D0F8003837
:1022F000090123F4FE63C0F80038D0F8003801F477
:10230000FE610B43C0F800380020704708B5D0F8D4
:10231000043823F00203C0F804380320FEF712F853
:10232000002008BD08B5D0F8043843F00203C0F817
:1023300004380320FEF706F8002008BD42698069D2
:102340001040704700F50063D0F81808DB691840AA
:10235000000C704700F50063D0F81808DB691840DE
:1023600080B2704700F5306303EB411100F5006067
:102370008A68406910407047D0F81028D0F8343887
:1023800000EB411023FA01F100F51060C9018068EB
:10239000C9B2114308407047406900F0010070471E
:1023A000D0F8003923F4FF6323F00703C0F80039A5
:1023B00000F500639A6802F00602042A02BFD0F812
:1023C000002942F00302C0F800295A68002042F4B4
:1023D00080725A60704710B50024C0F8104BD0F8D6
:1023E000104B012944F40024C0F8104BD0F8104BD6
:1023F00000F5306344F01804C0F8104BD0F8104BCF
:1024000008BF4FF0802344F0C044C0F8104B04BF15
:10241000C0F8142BC0F8003B002010BD0A4B013B54
:1024200001D1032070470269002AF8DA0369064ADD
:1024300043F001030361013AF3D0036913F0010390
:10244000F9D11846704700BF410D030008B500F0F0
:1024500037F8000008B50C4B1A680AB90B4A1A6025
:102460001A68C31C23F00303094913448B4206D99D
:1024700001F0DEFD0C2303604FF0FF3008BD024980
:1024800010460B6008BD00BFC80100200C0C0020E6
:1024900000FC002001230360014B0B60704700BF6C
:1024A0000000002008B500F01FF8024B024A9A60B5
:1024B00008BD00BF00ED00E00000000800F034B8E7
:1024C000BFF34F8F0549064BCA6802F4E06213431D
:1024D000CB60BFF34F8F00BFFDE700BF00ED00E012
:1024E0000400FA05FEE700000C4B00211A6842F0D8
:1024F00001021A6099601A6822F0847222F4803214
:102500001A60074A5A601A6822F480221A60D96059
:10251000044B4FF000629A60704700BF00380240E1
:102520001030002400ED00E0174A1849936803F0CA
:102530000C03042B03D0082B03D0154B18E0154BCC
:1025400016E05068536810F4800F506814BF114AA9
:102550000F4A03F03F03B2FBF3F30B4AC0F38810BA
:1025600052684343C2F3014201325200B3FBF2F31B
:102570000B60054B084A9B68C3F30313D25C0B68DE
:10258000D3400B60704700BF0038024008000020B5
:102590000024F40040787D01D648000814235843F5
:1025A00010F1FF3001D300BFFAE7704700000000D0
:1025B0001FB50446084601F0B5FA23A3D3E900236A
:1025C00001F004FB0022284B01F000FB20A3D3E91B
:1025D000002301F0FBFA20A3D3E9002301F044F922
:1025E0001FA3D3E9002301F01BFC01F001FD80B221
:1025F000FF284FF0000383BF01228DF80C208DF8D7
:102600000D308DF80C3098BF8DF80D0034B1012CD1
:102610000AD19DF80C3043F0700303E09DF80C30B4
:1026200043F010038DF80C304FF47A73009303AA33
:10263000022358210D48FEF72FF9B0FA80F0400927
:1026400004B010BDAFF30080FCA9F1D24D62D03FC1
:102650009A9999999999B93F277662277662E93FC5
:10266000277662277662F93F000020402C02002086
:1026700038B550218D4800F003FB002800F014818C
:102680008B498A4801F0CAFD20B908218948FFF723
:10269000DDF908E08849854801F0C0FD28B9082126
:1026A0008448FFF7EDF98548FAE085497F4801F055
:1026B000B5FD30B98349FFF77BFF0028F3D182488D
:1026C000EEE08249794801F0A9FD08B90021F2E75E
:1026D0007F49764801F0A2FD08B97E4905E07E49B0
:1026E000724801F09BFD10B900210120E3E77B490E
:1026F0006E4801F093FD40B902217948FDF790FF43
:1027000008B17848CCE07848CAE07849674801F0D9
:1027100085FD08B91021F0E77549644801F07EFD98
:1027200008B94021E9E77349604801F077FD0246A6
:10273000F8B904217048FDF779FF012202216E48A3
:10274000FDF774FF46F2A814012211466A48FDF70E
:102750006DFF1920FFF722FF002201216648FDF7D7
:1027600065FF1920FFF71AFF013CEDD1012204217A
:1027700091E062494D4801F051FD0246E8B940211F
:102780005D48FDF753FF012220215B48FDF74EFF16
:1027900046F2A814012210215748FDF747FF2320D5
:1027A000FFF7FCFE002210215348FDF73FFF2320D6
:1027B000FFF7F4FE013CEDD16BE051493B4801F0DD
:1027C0002DFD044600286AD1024604214A48FDF73F
:1027D0002DFF224640214848FDF728FFC825012249
:1027E00002214548FDF722FF012220214248FDF742
:1027F0001DFF46F2A814012211463F48FDF716FFBF
:10280000012210213C48FDF711FF2820FFF7C6FEEA
:10281000002201213848FDF709FF00221021364827
:10282000FDF704FF2820FFF7B9FE013CE3D10A20A1
:10283000FDF788FD224602212F48FDF7F7FE2246CC
:1028400020212D48FDF7F2FE46F2A8140122114680
:102850002948FDF7EBFE012210212748FDF7E6FE8F
:102860002820FFF79BFE002201212348FDF7DEFE12
:10287000002210212048FDF7D9FE2820FFF78EFE08
:10288000013CE3D1013DAAD1012204211A48FDF700
:10289000CDFE012240211848FDF7C8FE03E7194884
:1028A000BDE8384000F0CAB938BD00BFDC010020E7
:1028B000E648000868020020F3480008F0480008D5
:1028C000FC48000800001644094900080C490008AB
:1028D0001A49000800007A442749000835490008D1
:1028E0000000024016490008064900083D4900085A
:1028F000454900084E4900080008024056490008B2
:102900005E4900086949000810B5012392B006939A
:1029100007934FF480030D9319230E93F0230224A1
:102920000F9306A805230C9410941193FEF71AFC3C
:102930000F2301934FF4A053032102940493002426
:102940004FF4805301A805930394FEF795FDFEF71D
:10295000A9FE4FF47A73B0FBF3F0FDF753FD0420AA
:10296000FDF766FD224621464FF0FF30FDF70AFDD8
:1029700012B010BD00B58FB00024FDF7BBFCFFF70F
:10298000C3FF414B01941A6B772142F004021A6392
:102990001A6B3E4802F004020192019A02941A6BEB
:1029A0003B4D42F080021A631A6B02F080020292E1
:1029B000029A03941A6B42F001021A631A6B02F036
:1029C00001020392039A04941A6B42F002021A6302
:1029D0001B6B224603F002030493049BFDF726FEC3
:1029E000772307930123089307A903232748099412
:1029F0000A93FDF72FFD07A9522326480793089451
:102A00000994FDF727FD2448244A254B846080E87B
:102A10000C004FF48043C460036144618461C4616D
:102A20000462FDF7CDFE1F4B1F4A2B601F4B28464B
:102A30001B68AC60B3FBF2F3013B6B604FF47A733D
:102A4000EB602C61FEF746FF05A928460594069425
:102A5000FFF748F86023082207A9079328464FF498
:102A60009673089309940B94FEF780FF284600F0B4
:102A70006FF800F095F80E4C94F8FC31032BFBD165
:102A8000FFF7F6FDF8E700BF0038024000080240FB
:102A900068020020000002402C0200200054004088
:102AA000A086010000040040002D31010800002034
:102AB000A402002008B50320FDF752FCBDE8084041
:102AC000002211464FF0FF30FDF75CBC7FB5026875
:102AD000104B9A421AD1C02301931223029301236F
:102AE00003930323049304230DEB03010A48059386
:102AF000FDF7B0FC00230093084B1A6C42F400125F
:102B00001A641B6C03F400130093009B07B05DF87C
:102B100004FB00BF005400400004024000380240A3
:102B20000268094B82B09A420BD100230193074BF4
:102B30001A6C42F002021A641B6C03F00203019348
:102B4000019B02B0704700BF000400400038024003
:102B50007FB50268094B9A420DD14FF48073002271
:102B6000019303920223032201A9054802930492D0
:102B70000593FDF76FFC07B05DF804FB000400400F
:102B80000008024008B5FDF7CFFBBDE80840FDF79F
:102B90005CBC00000148FDF770BF00BF5C06002070
:102BA00010B5094C00220949204600F003FA0849F3
:102BB000204600F014FA2046064900F010FE204698
:102BC000BDE8104000F012BAA40200201C00002052
:102BD000940000200C000020002070470020704767
:102BE0000A68044B0020C3F80021012283F8042165
:102BF000704700BFD004002070B50C4D0C4B0D4E3B
:102C00000024FF2200212846336001F032FA2246D8
:102C100009493068C5F8004185F8044100F0E6FD37
:102C20002946306800F0EAFD204670BDD00400203F
:102C3000A4020020C8040020D805002038B50546AD
:102C400001F0F6FA84B27E2C11D80A232A460949EB
:102C5000094801F0BFFA621C084C92B2206806498C
:102C600000F0C4FD2068BDE8384000F0CDBD022072
:102C700038BD00BF78490008DC050020C8040020EA
:102C80002DE9F0471B4D064695F804010F4678B331
:102C90000024AA46A146DFF8608095F80431A742D7
:102CA00025D9002BFBD0D5F800211249A3189F424B
:102CB00009DC114B0024186881F8044100F0BBFDC9
:102CC0002046BDE8F087301901F0C8F9DAF8003184
:102CD000D8F800001C44A4B28AF8049100F0ABFDBF
:102CE000631EF218F35C0A2BD7D100231370012066
:102CF000BDE8F087D0040020C804002010B50368A8
:102D000086B0B3F1A04F25D14FF4C05301930223F5
:102D1000029303230024049301A90A230E48059378
:102D20000394FDF797FB0D4B43205A6B214642F06D
:102D300080025A6300945A6C42F480425A645B6C7D
:102D4000224603F480430093009BFDF71BFB4320C6
:102D5000FDF74CFB06B010BD0000024000380240F9
:102D600000F55F71D0F8AC0300F057B91C2303FBEA
:102D70000103D0F8AC03D3F8E02100F07BB91C23A9
:102D800003FB0103D0F8AC03DA6B00F0A4B9D0F870
:102D9000AC0300F01FBA10B50446C168D0F8AC030C
:102DA000003118BF012100F003FAD4F8AC03BDE8EC
:102DB000104000F0DEB9000010B50446D0F8AC03B6
:102DC00000F0F9F92268D2F8003E43F00103C2F89E
:102DD000003E236A23B1034A136943F006031361DB
:102DE00010BD00BF00ED00E0D0F8AC0300F0ECB97E
:102DF000D0F8AC0300F0FCB9D0F8AC0300F0F6B9A1
:102E0000D0F8AC0300F0F6B9D0F8AC0300F0F4B998
:102E100038B505781DBB134C4FF0A042072384E85A
:102E20000C00C4F8AC030223C0F820422046E36043
:102E3000A36125616561E56125626562A562FDF7B3
:102E40009FFD80212046FEF789F940222946204631
:102E5000FEF763F9802201212046FEF75EF900208B
:102E600038BD00BF5C06002008B5D0F82002FDF791
:102E7000EFFD002008BD10B51C46D0F82002134617
:102E80002246FEF73EF8002010BD08B5D0F820021B
:102E9000FEF766F8002008BD08B5D0F82002FEF75E
:102EA000E9F8002008BD08B5D0F82002FEF70FF9B8
:102EB000002008BD11F0800FD0F8202218BF01F0CB
:102EC0007F034FF01C0015BF00FB032100FB012115
:102ED00091F8320091F8D601704708B5D0F8200279
:102EE000FDF7FDFF002008BD08B5D0F82002FEF771
:102EF00094F8002008BD08B5D0F82002FEF754F879
:102F0000002008BD08B5D0F82002FEF77EF808BD05
:102F100012230B80004870473C00002004230B80E4
:102F2000004870473800002010B5044C0A46044899
:102F3000214600F010FB204610BD00BF0C0A002007
:102F40007D49000810B5044C0A460448214600F0AB
:102F500002FB204610BD00BF0C0A0020904900086B
:102F600010B5044C0A460448214600F0F4FA204605
:102F700010BD00BF0C0A0020A649000810B5044C83
:102F80000A460448214600F0E6FA204610BD00BF7C
:102F90000C0A0020B349000810B5044C0A46044846
:102FA000214600F0D8FA204610BD00BF0C0A0020D0
:102FB000BE49000808B580B1D0F8143213B100231F
:102FC000C0F8143209B1C0F81012012380F8FC31A6
:102FD0000270FFF71DFF002008BD022008BD19B1D7
:102FE000C0F81412002070470220704708B5FFF7A0
:102FF0003BFF002008BD08B5D0F814320BB9022001
:1030000008BD1B6898470028F9D108BD08B5D0F85D
:1030100014325B689847002008BD38B5044600F5B7
:103020000275284600F0F3F80123C4F8F43194F84F
:103030000812B4F80E32C4F8F83101F01F03012B66
:103040000CD006D3022B0ED12946204600F020FAE0
:103050000EE02946204600F0F9F809E0294620460E
:1030600000F0FEF904E001F080012046FFF714FFB4
:10307000002038BD38B50446154609BBD0F8F431F8
:10308000032B26D1D0F80C11D0F8102191420AD987
:103090008B1A9A4228BF1A46C0F80C3192B22946C0
:1030A00000F099FA15E0D0F814321B6923B190F8BA
:1030B000FC21032A00D19847204600F094FA08E04A
:1030C000D0F814329B6923B190F8FC21032A00D177
:1030D0009847002038BD70B5134604460E460029B7
:1030E0003CD1D0F8F421022A30D1C569026A954258
:1030F00007D9AA1AC261194692B200F055FA3346AE
:1031000011E08369B3FBF2F502FB15358DB99A42E4
:103110000FD8D0F8F82193420BD22A4600F044FA97
:103120002B46C4F8F8511A4619462046FFF7E3FE2D
:103130000CE0D4F81432DB682BB194F8FC21032A9C
:1031400001D120469847204600F058FA94F8003202
:10315000012B0CD1002384F8003208E0D0F814329F
:103160005B6923B190F8FC21032A00D19847002025
:1031700070BD38B504460022114640254023FFF7B4
:103180007AFE2B46C4F81051002280212046FFF71A
:1031900072FE012384F8FC31D4F8183225622BB179
:1031A000D4F8143221795B6820469847002038BD56
:1031B00001740020704790F8FC3180F8FD31042341
:1031C00080F8FC310020704790F8FD3180F8FC3128
:1031D0000020704708B590F8FC21032A04D1D0F8EC
:1031E0001432DB6903B19847002008BD0020704706
:1031F000002070470020704708B5012280F8FC21AC
:10320000D0F81422017952689047002008BD0B784D
:1032100003704B784370CA788B7803EB02234380AA
:103220004A790B7903EB02238380CA798B7903EB0C
:103230000223C380704710B504468021FFF72CFE9F
:103240002046BDE810400021FFF726BE73B54B783D
:1032500004460D46092B00F2F980DFE813F0CB009D
:10326000E200F700DE00F70075000A00F700BB007F
:1032700091004B881A0A013A062A00F2E780DFE83B
:1032800012F007000B001700E500E5003C004700C6
:10329000D0F810321B6817E0027CD0F814320AB95B
:1032A0009B6A00E0DB6A0DF10600984702233AE0D2
:1032B000DBB2052B00F2CA80DFE803F0030B0F132B
:1032C000171BD0F810325B680DF10601207C98477F
:1032D0002AE0D0F810329B68F6E7D0F81032DB68AD
:1032E000F2E7D0F810321B69EEE7D0F810325B69D4
:1032F000EAE7D0F810329B69E6E7037C002B40F048
:10330000A580D0F814320DF106005B6B98470BE0F6
:10331000037C002B40F09A80D0F814320DF10600A7
:103320001B6B984707234370BDF80620002A00F066
:103330009180EB88002B00F08D809A4228BF1A46BE
:103340000146ADF8062064E08B88002B7ED1CB8847
:10335000002B7BD190F8FC318E78032B06F07F0692
:1033600074D080F8FE613146FFF7B7FD204600F0CB
:103370003AF90EB1022300E0012384F8FC3169E040
:103380008978364E0129317060D890F8FC31022BD3
:1033900002D0032B08D059E0002953D00121032388
:1033A000416080F8FC310FE031B9022380F8FC3134
:1033B0004160FFF72BFE45E04168012942D0C9B2C8
:1033C000FFF724FE317861602046FFF714FE0228E3
:1033D00038D13BE0CA88012A38D190F8FC31022B61
:1033E00003D0032B32D1011D13E00146002341F825
:1033F000083F0EE090F8FC31023B012B26D8012358
:10340000C360D0F804320BB10323C360022204F17D
:103410000C01204600F0BBF81CE04B88012B19D1B1
:1034200008E090F8FC31023B012B0FD84B88012BB0
:1034300010D10023C4F80432D4F8143229469B6812
:1034400020469847204600F0CEF803E02946204663
:10345000FFF7F1FE002002B070BD00BFCD010020DB
:1034600038B590F8FC310446032B0D460CD10B798E
:10347000012B09D8D0F814329B689847EB882BB9F8
:10348000204600F0B0F801E0FFF7D5FE002038BD7F
:1034900070B50A788E8802F06002202A04460D4634
:1034A000F3B204D1D0F814329B68984751E04A78BF
:1034B000012A10D026D3032A4BD190F8FC21022AEE
:1034C00027D0032A43D14A8892B95E0610D0194604
:1034D000FFF7E2FC0CE090F8FC21022A19D0032A45
:1034E00035D14A88AABB590608D01946FFF7DBFC3C
:1034F000D4F8143229469B6820469847204600F0AD
:1035000072F826E090F8FC21022A02D0032A06D0A5
:103510001DE05A061DD01946FFF7BEFC19E003F066
:103520007F0516F0800F00EB0515194614BF143502
:1035300005F58275FFF7BEFC10B101232B6000E09A
:10354000286002222946204600F021F801E0FFF71A
:1035500072FE002070BD30B5C0B105462B1A15F8BB
:10356000014BDBB2002CF9D15B00023313800B70EE
:1035700003234B700138022310F8015F35B15A1C48
:10358000CD54D2B20233DBB28C54F5E730BD1346D2
:1035900010B50222C0F8F42183610A46C3610021FC
:1035A000FFF7A2FC002010BD08B513460A46002113
:1035B000FFF79AFC002008BD134610B50322C0F89F
:1035C000F421C0F808310A46C0F80C310021FFF799
:1035D00092FC002010BD08B513460A460021FFF7F3
:1035E0008AFC002008BD08B50423C0F8F43100238C
:1035F0001A461946FFF778FC002008BD08B50523D8
:10360000C0F8F43100231A461946FFF774FC002075
:1036100008BDD0F818321BB10020C3F8140270475F
:1036200002207047D0F81C3210B5D0F818425BB1B8
:1036300094F80002FF2807D09B6894F801222146E5
:103640009847FF2384F80032002010BD43230380F5
:103650000048704750000020432303800048704713
:103660001C0100204323038000487047D80000203D
:103670000A23038000487047CC00002038B5054677
:10368000D0F81842FFF73EFCD5F81832C4F80C0207
:103690004BB1D5F81C3204F50371DB68D4F8040291
:1036A0009847002038BD022038BD0000F8B50F78DB
:1036B000064617F060030C4622D0202B27D1CA887B
:1036C0004B78BAB13906D0F8185209D5D0F81C1287
:1036D00018468F682946B847E2882946304614E0E4
:1036E00085F80032E388294685F80132E288FFF741
:1036F00063FF0CE0D0F81C0284681846A04706E07F
:103700004B780A2B03D103490122FFF740FF002029
:10371000F8BD00BFCE01002010B504468121FFF79F
:10372000B4FB01212046FFF7B0FB82212046FFF7C2
:10373000ACFBD4F8183253B1D4F81C325B6898470C
:10374000D4F8180200F082FC0023C4F818320020DC
:1037500010BDF8B5037C044643B94FF40073022250
:103760008121FFF788FB4FF4007305E0402302221C
:103770008121FFF780FB4023022201212046FFF731
:103780007AFB0823032282212046FFF774FB4FF4C3
:10379000077000F053FC0646C4F81802E8B1D4F8EC
:1037A0001C3200251B689847277CC6F81452C6F8BF
:1037B00018524FB94FF40073D6F804220121204665
:1037C000FFF799FB3846F8BD4023D6F804220121C3
:1037D0002046FFF790FB2846F8BD0120F8BD19B13F
:1037E000C0F81C120020704702207047D0F8183231
:1037F0000020C3F80812C3F810227047D0F818321E
:103800000020C3F804127047D0F8182210B572B126
:10381000D2F81442012364B9C2F814328121B2F8FB
:103820001032D2F80822FFF75FFB204610BD0220BD
:1038300010BD184610BDD0F8182210B562B1047C36
:1038400014B94FF4007300E04023D2F804220121A0
:10385000FFF751FB002010BD022010BD81F0004198
:1038600002E000BF83F0004330B54FEA41044FEA65
:10387000430594EA050F08BF90EA020F1FBF54EA00
:10388000000C55EA020C7FEA645C7FEA655C00F09C
:10389000E2804FEA5454D4EB5555B8BF6D420CDD6D
:1038A0002C4480EA020281EA030382EA000083EAF0
:1038B000010180EA020281EA0303362D88BF30BD90
:1038C00011F0004F4FEA01314FF4801C4CEA1131E6
:1038D00002D0404261EB410113F0004F4FEA033345
:1038E0004CEA133302D0524263EB430394EA050FD0
:1038F00000F0A780A4F10104D5F1200E0DDB02FA3F
:103900000EFC22FA05F2801841F1000103FA0EF2D2
:10391000801843FA05F359410EE0A5F120050EF198
:10392000200E012A03FA0EFC28BF4CF0020C43FAC9
:1039300005F3C01851EBE37101F0004507D54FF0D6
:10394000000EDCF1000C7EEB00006EEB0101B1F526
:10395000801F1BD3B1F5001F0CD349085FEA30006C
:103960004FEA3C0C04F101044FEA445212F5800F77
:1039700080F09A80BCF1004F08BF5FEA500C50F114
:10398000000041EB045141EA050130BD5FEA4C0CF7
:10399000404141EB010111F4801FA4F10104E9D180
:1039A00091F0000F04BF01460020B1FA81F308BF77
:1039B0002033A3F10B03B3F120020CDA0C3208DD43
:1039C00002F1140CC2F10C0201FA0CF021FA02F11E
:1039D0000CE002F11402D8BFC2F1200C01FA02F18E
:1039E00020FA0CFCDCBF41EA0C019040E41AA2BFB3
:1039F00001EB0451294330BD6FEA04041F3C1CDA7B
:103A00000C340EDC04F11404C4F1200220FA04F09A
:103A100001FA02F340EA030021FA04F345EA030144
:103A200030BDC4F10C04C4F1200220FA02F001FA06
:103A300004F340EA0300294630BD21FA04F0294688
:103A400030BD94F0000F83F4801306BF81F4801121
:103A50000134013D4EE77FEA645C18BF7FEA655C94
:103A600029D094EA050F08BF90EA020F05D054EA66
:103A7000000C04BF1946104630BD91EA030F1EBF6B
:103A80000021002030BD5FEA545C05D1400049416F
:103A900028BF41F0004130BD14F580043CBF01F562
:103AA000801130BD01F0004545F0FE4141F4700148
:103AB0004FF0000030BD7FEA645C1ABF1946104623
:103AC0007FEA655C1CBF0B46024650EA013406BF24
:103AD00052EA033591EA030F41F4002130BD00BFE3
:103AE00090F0000F04BF0021704730B54FF48064A0
:103AF00004F132044FF000054FF0000150E700BF21
:103B000090F0000F04BF0021704730B54FF480647F
:103B100004F1320410F0004548BF40424FF000016C
:103B20003EE700BF42004FEAE2014FEA31014FEAAF
:103B300002701FBF12F07F4393F07F4F81F06051FE
:103B4000704792F0000F14BF93F07F4F704730B56D
:103B50004FF4607401F0004521F0004120E700BF00
:103B600050EA010208BF704730B54FF000050AE087
:103B700050EA010208BF704730B511F0004502D588
:103B8000404261EB41014FF4806404F132045FEA8A
:103B9000915C3FF4DCAE4FF003025FEADC0C18BF2F
:103BA00003325FEADC0C18BF033202EBDC02C2F125
:103BB000200300FA03FC20FA02F001FA03FE40EAB7
:103BC0000E0021FA02F11444C1E600BF70B54FF0B7
:103BD000FF0C4CF4E06C1CEA11541DBF1CEA135599
:103BE00094EA0C0F95EA0C0F00F0DEF82C4481EA01
:103BF000030621EA4C5123EA4C5350EA013518BF21
:103C000052EA033541F4801143F4801338D0A0FB0D
:103C100002CE4FF00005E1FB02E506F00042E0FBBA
:103C200003E54FF00006E1FB03569CF0000F18BFC0
:103C30004EF0010EA4F1FF04B6F5007F64F5407468
:103C400004D25FEA4E0E6D4146EB060642EAC621FB
:103C500041EA55514FEAC52040EA5E504FEACE2E68
:103C6000B4F1FD0C88BFBCF5E06F1ED8BEF1004F6B
:103C700008BF5FEA500E50F1000041EB045170BDE7
:103C800006F0004646EA010140EA020081EA03012B
:103C9000B4EB5C04C2BFD4EB0C0541EA045170BD27
:103CA00041F480114FF0000E013C00F3AB8014F1A1
:103CB000360FDEBF002001F0004170BDC4F10004EA
:103CC000203C35DA0C341BDC04F11404C4F120056B
:103CD00000FA05F320FA04F001FA05F240EA0200C6
:103CE00001F0004221F0004110EBD37021FA04F6FC
:103CF00042EB06015EEA430E08BF20EAD37070BDB6
:103D0000C4F10C04C4F1200500FA04F320FA05F014
:103D100001FA04F240EA020001F0004110EBD37016
:103D200041F100015EEA430E08BF20EAD37070BD86
:103D3000C4F1200500FA05F24EEA020E20FA04F35F
:103D400001FA05F243EA020321FA04F001F000410E
:103D500021FA04F220EA020000EBD3705EEA430E7F
:103D600008BF20EAD37070BD94F0000F0FD101F0AE
:103D70000046400041EB010111F4801F08BF013CE7
:103D8000F7D041EA060195F0000F18BF704703F025
:103D90000046520043EB030313F4801F08BF013DAC
:103DA000F7D043EA0603704794EA0C0F0CEA135568
:103DB00018BF95EA0C0F0CD050EA410618BF52EA22
:103DC0004306D1D181EA030101F000414FF0000028
:103DD00070BD50EA410606BF1046194652EA430636
:103DE00019D094EA0C0F02D150EA013613D195EAAA
:103DF0000C0F05D152EA03361CBF104619460AD1F2
:103E000081EA030101F0004141F0FE4141F47001FB
:103E10004FF0000070BD41F0FE4141F4780170BDEB
:103E200070B54FF0FF0C4CF4E06C1CEA11541DBF50
:103E30001CEA135594EA0C0F95EA0C0F00F0A7F852
:103E4000A4EB050481EA030E52EA03354FEA01317F
:103E500000F088804FEA03334FF0805545EA131392
:103E600043EA12634FEA022245EA111545EA10655A
:103E70004FEA00260EF000419D4208BF964244F1F1
:103E8000FD0404F5407402D25B084FEA3202B61A10
:103E900065EB03055B084FEA32024FF480104FF4E4
:103EA000002CB6EB020E75EB030E22BFB61A754658
:103EB00040EA0C005B084FEA3202B6EB020E75EBEB
:103EC000030E22BFB61A754640EA5C005B084FEA53
:103ED0003202B6EB020E75EB030E22BFB61A754620
:103EE00040EA9C005B084FEA3202B6EB020E75EB2B
:103EF000030E22BFB61A754640EADC0055EA060EEC
:103F000018D04FEA051545EA16754FEA06164FEA2E
:103F1000C30343EA52734FEAC2025FEA1C1CC0D1DA
:103F200011F4801F0BD141EA00014FF000004FF067
:103F3000004CB6E711F4801F04BF01430020B4F128
:103F4000FD0C88BFBCF5E06F3FF6AFAEB5EB030CE0
:103F500004BFB6EB020C5FEA500C50F1000041EBDD
:103F6000045170BD0EF0004E4EEA113114EB5C04AA
:103F7000C2BFD4EB0C0541EA045170BD41F480117D
:103F80004FF0000E013C90E645EA060E8DE60CEA85
:103F9000135594EA0C0F08BF95EA0C0F3FF43BAFA2
:103FA00094EA0C0F0AD150EA01347FF434AF95EA59
:103FB0000C0F7FF425AF104619462CE795EA0C0F3D
:103FC00006D152EA03353FF4FDAE1046194622E70A
:103FD00050EA410618BF52EA43067FF4C5AE50EAE4
:103FE00041047FF40DAF52EA43057FF4EBAE12E7D4
:103FF0004A0011D212F5001211D20DD56FF4787368
:10400000B3EB62520ED44FEAC12343F0004343EABC
:10401000505323FA02F070474FF00000704750EA07
:10402000013002D14FF0FF3070474FF00000704771
:10403000014B1868704700BFC0010020024B0146C9
:10404000186800F063B800BFC0010020024B0146B1
:10405000186800F017B800BFC001002010B5431E5B
:104060000A44914204D011F8014B03F8014FF8E7DC
:1040700010BD03460244934202D003F8011BFAE745
:104080007047000030B500293CD051F8042C0B1FBC
:104090001D49002AB8BF9B180A680C4612B95A601D
:1040A0000B6030BD9A420DD919685818824201BF81
:1040B00010685268091819605A60236030BD99422F
:1040C00003D80A4651680029F9D1146815199D4290
:1040D0000AD11B682344D0188142136012D10868AA
:1040E000034413604B680CE002D90C23036030BD1D
:1040F00018681C18A14201BF0C68496800191860B3
:104100005960536030BD00BFD401002070B5CD1C94
:1041100025F0030508350C2D38BF0C25002D06466B
:1041200003DA0C233360002070BDA942F9D81F4B7D
:104130001C681A462146A1B10B685B1B0ED40B2BE1
:1041400003D90B60CC18CD501EE08C420BBF6368C6
:104150004B681360636018BF0C4615E00C46496855
:10416000E9E7134C23681BB9304600F023F82060C0
:104170002946304600F01EF8431CD2D0C41C24F05F
:104180000304A0420AD1256004F10B00231D20F096
:104190000700C31A09D05A42E25070BD211A3046B6
:1041A00000F008F80130EED1BBE770BDD40100206B
:1041B000D001002038B5064C002305460846236090
:1041C000FEF748F9431C02D1236803B12B6038BDC8
:1041D000D80100200EB400B54FF402719CB0ADF8C8
:1041E00014106FF00041049107914FF6FF711DAB61
:1041F00002900690084853F8042BADF8161000689A
:1042000002A9019300F076F8029B00221A701CB0FC
:104210005DF804EB03B07047C001002010F8012BDB
:1042200011F8013B012A28BF9A42F7D0D01A7047F3
:10423000034613F8012B002AFBD1181A01387047E6
:104240002DE9F0478E6882469E420C46914698467C
:104250003ED88A8912F4906F3AD025680969022302
:104260006F1A656905EB450595FBF3F57B1C434427
:104270009D4238BF1D4653050FD52946FFF746FF1F
:10428000064698B13A462169FFF7E8FEA38923F470
:10429000906343F08003A38113E02A4600F0E3FA21
:1042A000064670B921695046FFF7ECFE0C23CAF8A8
:1042B0000030A3894FF0FF3043F04003A381BDE8F5
:1042C000F08726613E44266046466561ED1BA56089
:1042D000464528BF464649463246206800F0A8FABF
:1042E000A36800209B1BA36023681E442660BDE8D2
:1042F000F08700002DE9F04F9DB003938B89804635
:104300001C060D4616460DD50B695BB94021FFF71B
:10431000FDFE2860286118B90C23C8F80030CDE0F4
:1043200040236B610023099320238DF82930DFF8A7
:104330009CB130238DF82A3037463C4614F8013BB7
:104340001BB9B7EB060910D003E0252BF9D027469F
:10435000F3E74B46324629464046FFF771FF0130EE
:1043600000F0A780099B4B4409933B78002B00F099
:10437000A08000234FF0FF32049307930592069329
:104380008DF853301A930126052221784E4800F00B
:1043900041FA671C049B38B14B4A3C46801A06FA26
:1043A00000F018430490EFE7D90644BF20228DF8AF
:1043B00053201A0744BF2B228DF8532022782A2A33
:1043C00003D0079A00210A200BE0039A111D1268FE
:1043D0000391002A10DA524243F00200079204903F
:1043E0000BE027463B780134303B092B03D800FB18
:1043F00002320121F5E701B107923B782E2B1ED145
:104400007B782A2B0AD1039B02371A1D1B68039263
:10441000002BB8BF4FF0FF33059310E0002319467F
:104420000593781C0A2407463A780130303A092A65
:1044300003D804FB01210123F5E703B10591032211
:104440003978224800F0E6F940B14023CBEB000078
:1044500003FA00F0049B01371843049039780622D0
:104460001B487E1C8DF8281000F0D4F988B1194B38
:1044700033B9039B073323F007030833039314E096
:1044800003AB00932A46144B04A94046AFF30080C7
:1044900007E003AB00932A460F4B04A9404600F007
:1044A00093F8B0F1FF3F824603D0099B5344099330
:1044B00042E7AB895B0601D4099801E04FF0FF3079
:1044C0001DB0BDE8F08F00BFCE490008D4490008F8
:1044D000D849000800000000414200082DE9F047DB
:1044E00091461F460A698B6806469342B8BF134639
:1044F000C9F8003091F843200C46DDF8208012B155
:104500000133C9F800302368990642BFD9F800305A
:104510000233C9F80030256815F0060510D104F102
:10452000190A07E00123524639463046C047013098
:104530001AD00135E368D9F800209B1A9D42F1DBBF
:1045400094F843302268003318BF012392060FD538
:10455000E118302081F843005A1C94F84510224499
:10456000023382F8431003E04FF0FF30BDE8F087DC
:1045700004F1430239463046C0470130F4D0226886
:10458000D9F80050E36802F00602042A08BF5D1B58
:104590002269A3680CBF25EAE57500259342C4BFD4
:1045A0009B1AED184FF000091A344D4509D001232C
:1045B000224639463046C0470130D5D009F10109BD
:1045C000F3E70020BDE8F0872DE9F04317460A7EA7
:1045D00085B06E2A984606460C460C9B01F1430EA8
:1045E00000F0AE8011D8632A22D009D8002A00F04A
:1045F000BB80582A40F0CA8081F84520834955E0A5
:10460000642A1ED0692A1CD0C0E0732A00F0B08052
:1046100009D86F2A2ED0702A40F0B8800A6842F07C
:1046200020020A603EE0752A24D0782A3AD0ADE014
:104630001A6801F14205111D1960136884F84230AF
:10464000A8E021681A6811F0800F02D0111D1960CE
:1046500008E011F0400F02F10401196002D0B2F934
:10466000003000E01368002B3CDA2D225B4284F816
:10467000432037E021681A6811F0800F02D0111D25
:10468000196007E011F0400F02F10401196001D038
:10469000138800E01368227E5C496F2A14BF0A2247
:1046A00008221BE078225A4984F8452022681868BD
:1046B00012F0800F00F104051D6003D1550601D5ED
:1046C000038800E00368D00744BF42F02002226064
:1046D0001BB9226822F0200222601022002084F8F8
:1046E000430001E049490A226568002DA56008DB06
:1046F000206820F0040020602BB9002D7DD1754684
:104700000CE0002B79D07546B3FBF2F002FB1033BE
:10471000CB5C05F8013D03460028F5D1082A0BD1F2
:104720002368DA0708D5236962689A42DEBF30231E
:1047300005F8013C05F1FF35C5EB0E0323612EE0C2
:1047400008681A6810F0800F496903D0101D1860BE
:10475000136808E010F0400F02F1040018601368BD
:1047600001D0198000E0196000232361754616E02E
:104770001A68111D1960156800216268284600F04A
:1047800049F808B1401B6060636804E004F1420529
:1047900084F8422001232361002384F84330CDF8BC
:1047A00000803B4603AA21463046FFF797FE0130C2
:1047B00002D14FF0FF3026E023692A4639463046C1
:1047C000C0470130F5D023689B0710D5002504F1C0
:1047D000190907E001234A4639463046C0470130EF
:1047E000E7D00135E368039A9B1A9D42F2DBE0684B
:1047F000039B9842B8BF184605E00B7804F14205C8
:1048000084F842308AE705B0BDE8F083DF4900084C
:10481000F049000810B5C9B202449042034605D0E1
:104820001C7801308C42F8D1184610BD002010BD14
:10483000884210B501EB020301D8421E0BE09842FA
:10484000FBD28118D21AD34204D013F8014D01F8DB
:10485000014DF8E710BD994204D011F8014B02F860
:10486000014FF8E710BDF8B5074615460E4621B9C9
:104870001146BDE8F840FFF749BC1AB9FFF702FC42
:104880002846F8BD00F015F885420ED9294638466D
:10489000FFF73CFC044650B131462A46FFF7DEFBE9
:1048A00031463846FFF7EEFB01E03046F8BD2046C2
:1048B000F8BD51F8040C0028BEBF091851F8043C9B
:1048C000C018043870470000000001020304010210
:1048D00003040607080900000000000000000102B0
:1048E00003040607080950574D5F535441525400C2
:1048F0004F4B0050574D5F53544F50004355525249
:10490000454E545F585F4F4E004E4700435552523C
:10491000454E545F585F4F46460043555252454EF0
:10492000545F595F4F4E0043555252454E545F59A4
:104930005F4F46460053454E53455F580053454E22
:1049400053455F590053454E53455F5357004D4FF4
:10495000544F525F58004D4F544F525F59004D4FC6
:10496000544F525F54455354004E6F7420436F6D43
:104970006D616E6421212100257325630053544D20
:104980006963726F656C656374726F6E69637300DF
:1049900053544D3332205669727475616C20436FE5
:1049A0006D506F7274003030303030303030303015
:1049B00031410043444320436F6E666967004344BE
:1049C0004320496E74657266616365004300232D60
:1049D000302B2000686C4C00656667454647003008
:1049E0003132333435363738394142434445460055
:1049F0003031323334353637383961626364656655
:014A000000B5
:104A0400CC01002000000000001BB700F92B0008B7
:104A1400D92B0008DD2B0008E12B0008112F00081A
:104A24001D2F0008292F0008452F0008612F0008BA
:104A34007D2F0008992F00080403090412010002C5
:104A44000000004083044057000201020301FFFFFD
:104A540009024300020100C03209040000010202FD
:104A640001000524001001052401000104240202B0
:104A7400052406000107058203080010090401004B
:104A8400020A000000070501024000000705810238
:104A9400400000FF5337000819370008AD360008FE
:104AA4000000000025360008133600087D36000893
:104AB400000000000000000000000000593600085B
:104AC4004D36000865360008713600080A060002F3
:104AD400000000400100FFFF09074300020104C079
:104AE400320904000001020201000524001001053E
:104AF40024010001042402020524060001070582A2
:104B0400030800FF09040100020A00000007050170
:104B14000240000007058102400000FF0902430033
:104B2400020100C032090400000102020100052450
:104B340000100105240100010424020205240600DA
:104B4400010705820308001009040100020A00009D
:104B5400000705010200020007058102000200FFB0
:104B64000000000000000000000000000000000041
:104B74000000000000000000000000000000000031
:104B8400CC49000800000000000000000000000004
:104B94000000000000000000000000000000000011
:104BA4000000000000000000000000000000000001
:104BB40000000000000000000000000000000000F1
:044BC400600100206C
:040000050800018569
:00000001FF
